{
  "_format": "hh-sol-artifact-1",
  "contractName": "Calculator",
  "sourceName": "contracts/Calculator.sol",
  "abi": [
    {
      "inputs": [
        {
          "internalType": "uint256",
          "name": "a",
          "type": "uint256"
        },
        {
          "internalType": "uint256",
          "name": "b",
          "type": "uint256"
        }
      ],
      "name": "add",
      "outputs": [
        {
          "internalType": "uint256",
          "name": "",
          "type": "uint256"
        }
      ],
      "stateMutability": "pure",
      "type": "function"
    },
    {
      "inputs": [
        {
          "internalType": "uint256",
          "name": "a",
          "type": "uint256"
        },
        {
          "internalType": "uint256",
          "name": "b",
          "type": "uint256"
        }
      ],
      "name": "sub",
      "outputs": [
        {
          "internalType": "uint256",
          "name": "",
          "type": "uint256"
        }
      ],
      "stateMutability": "pure",
      "type": "function"
    }
  ],
  "bytecode": "0x608060405234801561001057600080fd5b506104d8806100206000396000f3fe608060405234801561001057600080fd5b50600436106100365760003560e01c8063771602f71461003b578063b67d77c51461006b575b600080fd5b61005560048036038101906100509190610296565b61009b565b60405161006291906102e5565b60405180910390f35b61008560048036038101906100809190610296565b610102565b60405161009291906102e5565b60405180910390f35b60008082846100aa919061032f565b90506100ed6040518060400160405280601381526020017f613d25732c20623d25732c20612b623d25732000000000000000000000000000815250858584610169565b82846100f9919061032f565b91505092915050565b60008082846101119190610363565b90506101546040518060400160405280601381526020017f613d25732c20623d25732c20612b623d25732000000000000000000000000000815250858584610169565b82846101609190610363565b91505092915050565b610205848484846040516024016101839493929190610427565b6040516020818303038152906040527fa7a87853000000000000000000000000000000000000000000000000000000007bffffffffffffffffffffffffffffffffffffffffffffffffffffffff19166020820180517bffffffffffffffffffffffffffffffffffffffffffffffffffffffff838183161783525050505061020b565b50505050565b6102228161021a610225610246565b63ffffffff16565b50565b60006a636f6e736f6c652e6c6f679050600080835160208501845afa505050565b610251819050919050565b610259610473565b565b600080fd5b6000819050919050565b61027381610260565b811461027e57600080fd5b50565b6000813590506102908161026a565b92915050565b600080604083850312156102ad576102ac61025b565b5b60006102bb85828601610281565b92505060206102cc85828601610281565b9150509250929050565b6102df81610260565b82525050565b60006020820190506102fa60008301846102d6565b92915050565b7f4e487b7100000000000000000000000000000000000000000000000000000000600052601160045260246000fd5b600061033a82610260565b915061034583610260565b925082820190508082111561035d5761035c610300565b5b92915050565b600061036e82610260565b915061037983610260565b925082820390508181111561039157610390610300565b5b92915050565b600081519050919050565b600082825260208201905092915050565b60005b838110156103d15780820151818401526020810190506103b6565b60008484015250505050565b6000601f19601f8301169050919050565b60006103f982610397565b61040381856103a2565b93506104138185602086016103b3565b61041c816103dd565b840191505092915050565b6000608082019050818103600083015261044181876103ee565b905061045060208301866102d6565b61045d60408301856102d6565b61046a60608301846102d6565b95945050505050565b7f4e487b7100000000000000000000000000000000000000000000000000000000600052605160045260246000fdfea26469706673582212202c570fef55fd33a8f829ec7e84e06160129fe2856d5ae0e1427e14b931d343ff64736f6c63430008180033",
  "linkReferences": {},
  "deployedLinkReferences": {}
}