{
  "contractName": "Counter",
  "abi": [
    {
      "inputs": [],
      "stateMutability": "nonpayable",
      "type": "constructor"
    },
    {
      "inputs": [],
      "name": "add",
      "outputs": [],
      "stateMutability": "nonpayable",
      "type": "function"
    },
    {
      "inputs": [],
      "name": "get",
      "outputs": [
        {
          "internalType": "uint256",
          "name": "",
          "type": "uint256"
        }
      ],
      "stateMutability": "view",
      "type": "function"
    }
  ],
  "bytecode": "0x608060405234801561000f575f80fd5b505f8081905550610144806100235f395ff3fe608060405234801561000f575f80fd5b5060043610610034575f3560e01c80634f2be91f146100385780636d4ce63c14610042575b5f80fd5b610040610060565b005b61004a610075565b6040516100579190610095565b60405180910390f35b60015f5461006e91906100db565b5f81905550565b5f8054905090565b5f819050919050565b61008f8161007d565b82525050565b5f6020820190506100a85f830184610086565b92915050565b7f4e487b71000000000000000000000000000000000000000000000000000000005f52601160045260245ffd5b5f6100e58261007d565b91506100f08361007d565b9250828201905080821115610108576101076100ae565b5b9291505056fea264697066735822122021e5b206c4995d7391a41494986e851fcf1f7ce00ec569ddc55ad1696e8692b964736f6c63430008150033",
  "immutableReferences": {},
  "source": "//SPDX-License-Identifier: MIT\r\npragma solidity >=0.4.0 <0.9.0;\r\n\r\ncontract Counter {\r\n    uint counter;\r\n\r\n    constructor(){\r\n        counter = 0;\r\n    }\r\n\r\n    function add() public{\r\n        counter = counter + 1;\r\n    }\r\n\r\n    function get() public view returns(uint) {\r\n        return counter;\r\n    }\r\n}",
  "sourcePath": "D:\\Project\\1_GitHub_Bruce\\Pizza369\\0x0005 project\\truffle-test\\contracts\\Counters.sol",
  "compiler": {
    "name": "solc",
    "version": "0.8.21+commit.d9974bed.Emscripten.clang"
  },
  "schemaVersion": "3.4.16",
  "updatedAt": "2024-03-05T23:56:38.202Z",
  "devdoc": {
    "kind": "dev",
    "methods": {},
    "version": 1
  },
  "userdoc": {
    "kind": "user",
    "methods": {},
    "version": 1
  }
}